:020000040800F2
:10000000780500209D010008252F00089D24000888
:10001000212F0008DD0800089536000800000000C8
:100020000000000000000000000000009133000804
:10003000B109000800000000292F000895330008CE
:10004000B7010008B7010008B7010008B7010008B0
:10005000B7010008B7010008B7010008B7010008A0
:10006000B7010008B7010008B7010008B701000890
:10007000B7010008B7010008B7010008B701000880
:10008000B7010008B7010008B7010008B701000870
:10009000B7010008B7010008B7010008B701000860
:1000A000B7010008B7010008B7010008B701000850
:1000B0005D340008B7010008B7010008B701000867
:1000C000B7010008B7010008B7010008B701000830
:1000D000B7010008B7010008B7010008B701000820
:1000E000B7010008B7010008B7010008B701000810
:1000F000B7010008B7010008B7010008B701000800
:10010000B7010008B7010008B7010008B7010008EF
:10011000B7010008B7010008B7010008B7010008DF
:10012000B7010008B7010008B7010008B7010008CF
:10013000B70100080000000000000000B70100083F
:10014000B7010008B7010008B7010008B7010008AF
:10015000B7010008B7010008B7010008B70100089F
:10016000B7010008B7010008B7010008B70100088F
:10017000B7010008B701000800000000B70100083F
:10018000B7010008B7010008DFF80CD000F030FB21
:1001900000480047B9360008780500200648804727
:1001A00006480047FEE7FEE7FEE7FEE7FEE7FEE75C
:1001B000FEE7FEE7FEE7FEE7493400088901000894
:1001C0002DE9F05F0546002092469B46884606468C
:1001D000814640241BE0284641464746224600F01F
:1001E00074F953465A46C01A914110D31146184625
:1001F000224600F05BF92D1A67EB01084F462246B4
:100200000120002100F052F917EB00094E41201E99
:10021000A4F10104DFDC484631462A464346BDE8E6
:10022000F09F2DE9FE4F81EA030404F0004421F021
:10023000004100944FF0000B23F0004350EA01040A
:100240005ED052EA03045BD0C3F30A54C1F30A55EB
:100250002C44A4F2F3340194A0FB0254C1F3130123
:1002600041F48011C3F3130343F4801301FB0244F0
:1002700000FB034E840A970A44EA815447EA8357F5
:10028000A4FB076802958D0A05FB07854FEA932CAE
:1002900004FB0C542705029D4FEA065847EA16371F
:1002A000B5EB08056EEB070C870E920E47EA811737
:1002B00042EA8312A7FB0201B6EB0B0164EB0004D8
:1002C0002B0D43EA0C335E1844EB1C50DA465146C2
:1002D000E7FB0201C5F313044FEA0B3343EA14535F
:1002E0004FEA0432019C43EA0603A4F10C04029491
:1002F000009CCDE900B400F03EF903B0BDE8F08FFA
:1003000000200146F9E72DE9F04D81EA030404F0ED
:10031000004B21F0004514464FF0000A23F0004145
:1003200050EA050220D054EA01021DD0C5F30A5755
:100330000246C5F31303C1F31300C1F30A5640F498
:10034000801543F48013A7EB0608101BD64608F26D
:10035000FD3873EB050002D308F1010801E09218A3
:100360005B41B8F1000F03DA00200146BDE8F08DD3
:1003700000204FF48011064684460EE0171B73EBF5
:10038000050705D3121B63EB050306434CEA010C7A
:1003900049084FEA300092185B4150EA0107EDD15D
:1003A00052EA030012D082EA040083EA05010843FE
:1003B00005D0101BAB4106D20122002306E000222B
:1003C0004FF0004302E06FF0010253101AEB0600F9
:1003D0004CEB085110EB0A0041EB0B01BDE8F04D6E
:1003E00000F0BAB870B5C1F30A5201F0004500241C
:1003F000C1F3130140F2FF3341F480119A4201DA54
:10040000002070BD40F233439A42A2F2334203DC33
:10041000524200F05AF800E090402C43F1D04042A4
:1004200070BD00F0004230F000400AD0C10D01F56F
:100430006071C0F3160042EA0151C208400711433F
:10044000704700200146704701F0004330B421F0AE
:10045000004150EA010206D00A0DA2F56072C1F314
:100460001301002A02DC30BC00207047440F44EA2C
:10047000C104C100E01830BC00EBC25000F035B838
:1004800030B50B46014600202022012409E021FA64
:1004900002F59D4205D303FA02F5491B04FA02F561
:1004A0002844151EA2F10102F1DC30BD202A04DB34
:1004B000203A00FA02F1002070479140C2F1200377
:1004C00020FA03F3194390407047202A04DB203AB6
:1004D00021FA02F00021704721FA02F3D040C2F164
:1004E000200291400843194670470029A8BF704771
:1004F000401C490008BF20F00100704710B4B0FA5A
:1005000080FC00FA0CF050EA010404BF10BC7047F4
:1005100049B1CCF1200421FA04F411FA0CF118BF0E
:10052000012121430843A3EB0C01CB1D4FEA0061DD
:100530004FEA102042BF002010BC704700EBC350B0
:1005400010440029A4BF10BC7047401C490008BFDC
:1005500020F0010010BC704710B5141E73F10004A8
:1005600008DA401C41F1000192185B411A4301D1A5
:1005700020F0010010BD2DE9F04D92469B4611B1CF
:10058000B1FA81F202E0B0FA80F220329046FFF731
:100590008DFF04460F4640EA0A0041EA0B0153462C
:1005A0005A46084313D0114653EA010019D0C8F146
:1005B00040025046FFF789FF05460E465046594611
:1005C0004246FFF773FF084305D0012004E02046B0
:1005D0003946BDE8F08D0020054346EAE0762C431D
:1005E00037430A986305E40AA0EB08000022FD0ADD
:1005F00044EA47540A3002D500200146E9E70105E4
:1006000010196941DDE9084500196941BDE8F04D5F
:10061000A2E72DE9FE4F804681EA0300C00F0C4699
:10062000009021F0004123F00045B8EB0200A94101
:1006300005D24046214690461C460B46024623F012
:100640000040104347D0270DC7F30A00C3F30A51F7
:100650000290401A019040286BDAC3F3130040F473
:10066000801B0098924620B10023D2EB030A63EB73
:100670000B0B01985946C0F140025046FFF716FF98
:1006800006460D4650465946019A00F0C3F810EB55
:1006900008006141002487EA115284EAE7731A4393
:1006A00040D0009A62B3019A012A4FEA075215DC42
:1006B000001B61EB02014FF0004202EA0752CDE954
:1006C0000042001C41F5801132462B46FFF753FFD4
:1006D00003B0BDE8F08F40462146F9E7001B61EB0F
:1006E0000201001C41F5801300185B412018A2F59F
:1006F000001747EB030140EAD570B6196D4111E0D0
:100700006D084FEA360645EAC0754FEA0752001BEE
:1007100061EB0201001C41F5801149084FEA3000ED
:100720000019514132462B4603B0BDE8F04FFFF7A8
:1007300013BF0098012240000023D0EB020263EBBC
:10074000E073009821464FEAE074B8EB000061EBDB
:100750000401E9E783F000435BE781F0004158E7DB
:10076000C1F30A52C1F3130140F2FF3341F4801187
:100770009A4202DA00200146704740F233439A421F
:10078000A2F2334202DC5242FFF79FBEFFF78EBE59
:1007900030B5041E71F1000404DB4FF00044404208
:1007A00064EB0101141E73F1000405DB1C464FF0DD
:1007B0000043524263EB04038B4208BF824230BDC8
:1007C00030B5041E71F1000404DB4FF000444042D8
:1007D00064EB0101141E73F1000405DB1C464FF0AD
:1007E0000043524263EB0403994208BF904230BD7C
:1007F000064C074D06E0E06840F0010394E807006E
:1008000098471034AC42F6D3FFF7C2FC604C0008A6
:10081000804C0008202A06DBCB17203A41FA02F070
:1008200043EAE07306E041FA02F3D040C2F120024D
:1008300091400843194670472DE9F04D00231A46B0
:100840001B1A8A4103DB00200146BDE8F08DC1F38D
:100850000A52C1F3130141F480154FF0000BD10788
:1008600002D100186D41521E0027044640F2FF11CC
:10087000384601EB620A3E468046024600204FF4AD
:100880008011FFF722FEC2197141BB1846EB01002F
:10089000B4EB030C75EB000C04D3E41A65EB000514
:1008A00017460E46241908F101006D418046342890
:1008B000E3DDF91946EB0600091BA84103D24FF00E
:1008C000FF32134601E0002213461BEB070046EB04
:1008D0000A51BDE8F04DFFF73FBE0000FEE7000003
:1008E0002DE9F04F85B040F2200764240DF1020A93
:1008F000C2F200070DF10E0002A9524601F0D0FD30
:10090000BDF90E00BDF91010D7E90153BDF9122051
:10091000BDF90AC0D7E903892E185D187969BDF9B8
:1009200008B0BDF90CE008EB020001EB0C02B9695C
:1009300009EB0B037144013C7E60BD60F8603B61D4
:100940007A61B961D6D148F21F5CC5F2EB1C56FB47
:100950000CF6741104EBD6767E6055FB0CF675111F
:1009600005EBD676BE6050FB0CF6751153FB0CF30D
:1009700005EBD6765D1105EBD37352FB0CF23B61B0
:10098000531103EBD27251FB0CF17A614A1102EB65
:10099000D171B9614FF480416328C4BF4CF20001AA
:1009A000CFF6FF718819F86005B0BDE8F08F000040
:1009B00070470000EFF3108072B600BFFEE7000042
:1009C000B0B5044600F0EAF8054640F21400C2F261
:1009D00000000078611C18BF044400BF00F0DEF87E
:1009E000401BA042FAD3B0BD2DE9F04F82B000F118
:1009F0003E4241F6004502F1FF77C4F202050822AB
:100A000043F6004E4FEAB726A84208BF0722C4F2B9
:100A1000010E072E38BF4FEAB72201250026002716
:100A20004FF00008009208E008F101080437B8F11F
:100A3000100F06F1020600F0A7800C6805FA08F90D
:100A400014EA090FF0D0D1F804B003220BF0030C24
:100A5000ACF10104B240012C6FEA020A10D882689E
:100A6000CC6802EA0A02B440224382604268CBF3B7
:100A7000001422EA090204FA08F42243426005E065
:100A8000BCF1030F02D14FF0030C20E0C2688C6868
:100A900002EA0A02B4402243BCF1020FC26016D13E
:100AA0006FF0030202EA58020244D2F820C007F0B5
:100AB0001C050F230C69AB402CEA030304FA05F56F
:100AC0002B431362D1F804B001250BF0030C02682C
:100AD0000CFA06F302EA0A021A431BF4403F0260D2
:100AE000A2D0002243F644030192C4F202031A6822
:100AF0004FF6084C42F480421A601A68CFF6FF7C29
:100B000002F480420192019A28F00302724452F8E2
:100B10000C3007F00C050F24AC40A343009C04FAF2
:100B200005F52B4342F80C30DEF808204B6842EA0A
:100B3000090543F60C4CDC0258BF22EA0905CEF841
:100B40000850C4F2010CDCF800209C0242EA0905BE
:100B500058BF22EA0905CCF80050DEF804209C03B7
:100B600042EA090558BF22EA0905CEF80450DEF82A
:100B70000020DB0342EA090558BF22EA0905CEF846
:100B80000050012550E700BF02B0BDE8F08F000023
:100B9000002A08BF090481617047000040F270100C
:100BA000C2F200000068704740F2140040F2701179
:100BB000C2F20000C2F2000100780A681044086026
:100BC0007047000080B543F60040C4F2020001689F
:100BD00041F400710160016841F4806101600168C5
:100BE00041F480710160032000F088F80F2000F0CC
:100BF00005F800F027F8002080BD000070B540F235
:100C00001406C2F2000640F21C013278C2F2000162
:100C10004FF47A730968B3FBF2F20446B1FBF2F1C8
:100C2000084600F083FF0F2C4FF0010508D838B9B3
:100C30004FF0FF3021460022002500F033F87460A9
:100C4000284670BD82B0002043F640010190C4F2F6
:100C500002014A6842F480424A604A6802F48042D3
:100C60000192019A0090086840F08050086008687E
:100C700000F080500090009802B07047002848BFF4
:100C80007047C1B200F01F00012202FA00F04EF2DC
:100C90000012CEF2000242EAD10121F00301086005
:100CA0007047000010B54EF60C5CCEF2000CDCF87C
:100CB0000030C3F3022E8EF00704042C28BF042456
:100CC000BEF103034FF0FF3E0EFA04F438BF0023D9
:100CD000A14399400EFA03F39A43114300F00F0227
:100CE00000F160430901043A03F5644362440028BB
:100CF00048BF02F10C03197010BD00004EF60C51F4
:100D0000CEF200010A684FF6FF031A4060F30A2290
:100D100042F0806040F0FD70086070472DE9F041BE
:100D2000002800F08B8043F60808C4F2020804464D
:100D3000D8F8F8030D4600F00700884207D288F87B
:100D4000F853D8F8F80300F00700A84276D12068DD
:100D5000810717D5410705D5D8F8001041F4E051B7
:100D6000C8F80010010705D5D8F8001041F460411B
:100D7000C8F80010D8F80010A26821F0F001114363
:100D8000C8F80010C0073FD1D8F8F80300F00700FA
:100D9000A84207D988F8F853D8F8F80300F00700FC
:100DA000A8424BD12068410707D5D8F80010E26867
:100DB00021F4E0511143C8F80010000708D5D8F815
:100DC0000000216920F4604040EAC100C8F800003A
:100DD00000F07CF8D8F8001044F64842C1F3031143
:100DE000C0F60002515C40F21C0220FA01F140F210
:100DF0001800C2F200000068C2F200021160FFF7A2
:100E0000FDFE0020BDE8F0816068811E022907D246
:100E100058F8081C89015CBF0120BDE8F08111E091
:100E2000012807D158F8081C89035CBF0120BDE8E0
:100E3000F08107E058F8081C890703D40120BDE8B9
:100E4000F08100BFD8F8001021F003010843C8F872
:100E50000000FFF7A3FE064641F28837D8F80000ED
:100E6000616800F00C00B0EB810F8DD0FFF796FEAB
:100E7000801BB842F2D90320BDE8F08140F21C008B
:100E800043F60801C2F20000C4F2020100680968DA
:100E900044F65842C1F38221C0F60002515CC840BA
:100EA0007047000040F21C0043F60801C2F2000047
:100EB000C4F202010068096844F65842C1F34231A5
:100EC000C0F60002515CC8407047000010B543F600
:100ED0000404C4F20204606800F00C0142F2004015
:100EE0000829C0F2F40007D0042918BF10BD41F250
:100EF0000020C0F27A0010BD216801F03F02216895
:100F000023684902C3F3881106D4A1FB0001002322
:100F1000FFF756F907E000BF41F20020C0F27A0067
:100F20004843B0FBF2F021680222C1F3014102EB19
:100F30004101B0FBF1F010BD2DE9F04182B0002875
:100F400068D00446007843F60006C007C4F20206E3
:100F50000BD0B06800F00C00042840F09F8030688F
:100F6000800302D56068002854D0207880071AD505
:100F7000B06810F00C0F09D0B06800F00C00082821
:100F800040F0A6807068400200F1A28030688007BF
:100F900002D5E06801283DD13068216920F0F800D1
:100FA00040EAC10030602078000737D4207840073D
:100FB0004CD4A56955B3B06800F00C00082840F087
:100FC000BB80012D26D07068E16900F480028A425E
:100FD00020D1216A00F03F028A421BD147F6C0713E
:100FE000626A0140B1EB821F14D1A16A4FF6FF7310
:100FF000C903994300F44032A1F580318A4209D1F6
:10100000E16A00F07060B0EB016F03D1002002B024
:10101000BDE8F081012002B0BDE8F08160690028E0
:1010200040F20000C4F2472076D00121C0F8801EB3
:10103000FFF7B4FD054600BF706F8007B6D4FFF719
:10104000ADFD401B0228F7D9DDE000BF306C10F089
:1010500080580AD100200190306C40F080503064FC
:10106000306C00F080500190019847F20007C4F204
:1010700000073868C00541D4386840F48070386093
:10108000FFF78CFD054600BF3868C00536D4FFF772
:1010900085FD401B0228F7D9B5E000BFB06800F01D
:1010A0000C00082803D1706840023FF558AF606813
:1010B000B0F5803F07D0B0F5A02F40F08D803068AC
:1010C00040F480203060306840F4803030608DE043
:1010D000E068002852D00020C4F2472001210160BE
:1010E000FFF75CFD054600BF306880073FF554AF51
:1010F000FFF754FD401B0228F6D984E0A0680128C0
:1011000005D005284ED1306F40F004003067306FB5
:1011100040F0010030674FE00021C0F8801EFFF76B
:101120003DFD0546706F80077FF540AFFFF736FD48
:10113000401B0228F6D966E00027C4F247270020AA
:101140003866FFF72BFD022D05460BD13068800174
:101150005ED5FFF723FD401B02284FF00300F5D9B1
:1011600055E700BF306880017FF550AFFFF716FDEF
:10117000401B02284FF00300F4D948E70020C4F2D6
:10118000472000210160FFF709FD05463068800710
:101190007FF509AFFFF702FD401B02284FF0030067
:1011A000F4D934E7316F002821F001013167316F44
:1011B00021F0040131674DD0FFF7F0FC054641F204
:1011C000883700BF306F800756D4FFF7E7FC401B1D
:1011D000B842F7D917E000BF3168002821F4803108
:1011E0003160316821F4802131604FD0FFF7D6FCA7
:1011F000054600BF306880033FF5B7AEFFF7CEFC71
:10120000401B6428F6D9032002B0BDE8F08100BF7E
:1012100004F11C052FCD084340EA8210D9034FF694
:10122000FF729143A1F5803140EA05600843706088
:1012300001203866FFF7B2FC044600BF3068800129
:101240003FF5E4AEFFF7AAFC001B02284FF00300B5
:10125000F4D9DCE6FFF7A2FC054641F2883700BF6F
:10126000306F800708D5FFF799FC401BB8424FF05C
:101270000300F5D9CBE600BFB8F1000F7FF499AEBB
:10128000306C20F08050306493E600BFFFF786FC9E
:10129000054600BF306880037FF567AEFFF77EFC30
:1012A000401B64284FF00300F4D9B0E670B538B1A4
:1012B0000446406A30B10020206104F1140007E0C8
:1012C000012070BD6068B0F5827F03D004F11C007E
:1012D000002101600026A66294F8510020B9204642
:1012E00084F8506000F03CF8022084F8510094E843
:1012F0000F0001F48271056802F4044225F04005F4
:101300000560114403F400622369114403F00202F2
:101310006369114403F00102A369E569114403F410
:101320000072114405F03802256A114405F080026C
:10133000A56A114305F4005211430160626A042159
:1013400001EA134102F0100211444160C16921F425
:101350000061C1610120666584F85100304670BDAE
:1013600080B586B0016843F20000C4F201008142FA
:1013700002D006B080BD00BF002143F630020191CB
:10138000C4F20202536900F5504043F480535361A4
:10139000536903F480530193019B0191136843F057
:1013A00001031360126802F001020192019AE02227
:1013B00001920222CDE90221032104910521059128
:1013C00001A9FFF711FB06B080BD00002DE9F04335
:1013D00081B0044640681D461746B0F5827F0E4630
:1013E00001D1A068E0B394F85000012804D1022094
:1013F00001B0BDE8F08300BF4FF0010984F85090C0
:10140000FFF7CCFB94F85110012927D18046002E1C
:101410004FF0010018BF002F00F0C9800420002108
:1014200084F851006165A663A787E7872163A186D9
:10143000E186A2682068B2F5004F216461644BD058
:101440000168490653D5E168E08F002957D000288C
:1014500000F08680681C1CD12DE000BF0220A6E0B1
:10146000042084F851002046314632463B46009520
:1014700000F0D0F901B0BDE8F08300BFC068A16BF7
:1014800021F8020BA163E08F0138E087E08F00288C
:1014900066D020688168C907F0D1FFF77FFBA0EB19
:1014A0000800A842F2D3032081E000BFFFF776FBDB
:1014B000E08F002854D020688168C907F6D0C06842
:1014C000A16B21F8020BA163E08F0138E087E08F68
:1014D0000028F0D144E000BF016821F04001016024
:1014E000016821F48041016001684906ABD40168BC
:1014F00041F040010160E168E08F0029A7D178B395
:10150000681C0CD11CE000BF007BA16B0870A06BB5
:101510000130A063E08F0138E087E08F00B32068DE
:101520008168C907F0D1FFF739FBA0EB0800A8429A
:10153000F3D303203BE000BFFFF730FBE08F78B12F
:1015400020688168C907F7D0007BA16B0870A06B89
:101550000130A063E08F0138E087E08F0028EFD1F1
:101560006068B0F5827F0ED1A068B0F5004F02D060
:10157000B0F5806F0AD12168B0F5806F0A6822F05B
:1015800040020A6002D12046012101E0204680216C
:101590002A46434601F08AFE28B1606D40F02000E3
:1015A000606520206065606D002818BF0120002163
:1015B00084F8519084F8501001B0BDE8F083000029
:1015C0002DE9F04383B0044690F85000012803D180
:1015D000022003B0BDE8F0834FF001091D46164616
:1015E0000F4684F85090FFF7D9FA94F8511001296A
:1015F00044D18046002F4FF0010018BF002E00F0AC
:10160000D6800320002184F8510061652763A686F7
:10161000E686A163A187E187A0682164B0F5004F49
:101620002068616407D1016821F040010160016810
:1016300041F4804101600168490603D4016841F02A
:10164000400101606168731EE268B1FA81F1B3FA8A
:1016500083F349095B09B2F5006F41EA03013DD10B
:1016600031B137F8021BC1602763E08E0138E08694
:10167000E08E00286CD0681C0DD11EE0022096E0A0
:10168000216B31F8022BC2602163E08E0138E086C5
:10169000E08E00285CD0206881688907F0D4FFF7CD
:1016A0007DFAA0EB0800A842F2D303207FE000BF40
:1016B000FFF774FAE08E00284AD020688168890715
:1016C000F6D5216B31F8022BC2602163E08E013820
:1016D000E086E08E0028F0D13AE000BF39B13978D9
:1016E0000173206B01302063E08E0138E086E08ECC
:1016F00070B3681C0BD11BE0216B09780173206B60
:1017000001302063E08E0138E086E08E00B320686F
:1017100081688907F0D4FFF741FAA0EB0800A842DE
:10172000F3D3032043E000BFFFF738FAE08E78B12F
:10173000206881688907F7D5216B09780173206BD0
:1017400001302063E08E0138E086E08E0028EFD182
:1017500040F21C00C2F20000006849F68171C1F23B
:101760005E61A0FB0101480D4FF47A71484302907D
:101770006068B0F5827F23D1204680212A46434607
:1017800001F094FD28B1606D40F0200060652020DC
:101790006065A06838B9002001902068C168019197
:1017A000806801900198606D002818BF0120002119
:1017B00084F8519084F8501003B0BDE8F08300BF66
:1017C00002980028E5D002980138029020688068CD
:1017D0000006DED502980028DBD00298013802907E
:1017E000206880680006D4D502980028D1D00298DD
:1017F00001380290206880680006CAD50298002847
:10180000C7D0029801380290206880680006D7D4BB
:10181000BFE700002DE9F04383B0044690F8500084
:10182000012803D1022003B0BDE8F08301201E4649
:1018300015460F4684F85000FFF7B0F994F85110A0
:101840008146012940F09880002F4FF0010018BF19
:10185000002D00F09E80002E00F09B8094F8510037
:10186000002104281CBF052084F851006165A56390
:10187000E687A6872763E6862068A68621646164DA
:101880000168490603D4016841F0400101606168C4
:10189000731EE268B1FA81F1B3FA83F3DDF82880B0
:1018A00049095B09B2F5006F41EA03017AD131B110
:1018B00037F8021BC1602763E08E0138E0860125FE
:1018C00018F1010031D101E0FFF768F9E08E18B995
:1018D000E08F002800F0D0802068816889070CD54F
:1018E000E18E51B1012D08D1216B002531F8022B79
:1018F000C2602163E18E0139E1868168C907E3D0C6
:10190000E18F0029E0D0C068A16B012521F8020B0E
:10191000A163E08F0138E087D6E700BFFFF73EF90B
:10192000A0EB0900404580F0FD80E08E18B9E08F03
:10193000002800F0A1802068816889070CD5E18E1D
:1019400051B1012D08D1216B002531F8022BC26065
:101950002163E18E0139E1868168C907DED0E18F1C
:101960000029DBD0C068A16B012521F8020BA1631F
:10197000E08F0138E087D1E76068B0F5827F07D15A
:10198000A06800284FF0020008BF042901D15BE7DE
:101990000220012184F85110002184F8501003B076
:1019A000BDE8F08339B139780173206B01302063D1
:1019B000E08E0138E086012518F1010033D101E005
:1019C000FFF7ECF8E08E10B9E08F002854D02068C3
:1019D000816889070ED5E18E61B1012D0AD1216B95
:1019E000002509780173216B206801312163E18EA4
:1019F0000139E1868168C907E2D0E18F0029DFD093
:101A0000C068A16B01250870A06B0130A063E08F56
:101A10000138E087D4E700BFFFF7C0F8A0EB09006A
:101A2000404580F08180E08E08B9E08F20B32068C7
:101A3000816889070ED5E18E61B1012D0AD1216B34
:101A4000002509780173216B206801312163E18E43
:101A50000139E1868168C907DED0E18F0029DBD03A
:101A6000C068A16B01250870A06B0130A063E08FF6
:101A70000138E087D0E700BF40F21C00C2F200004E
:101A8000006849F68171C1F25E61A0FB0101480D59
:101A90004FF47A71484302906068B0F5827F0FD1AD
:101AA0002046802142464B4601F000FC60B3606D49
:101AB00040F02000606520206065012069E700BFDC
:101AC000029808B3029801380290206880680006E6
:101AD0001AD50298C0B10298013802902068806837
:101AE000000611D5029878B102980138029020685A
:101AF0008068000608D5029830B10298013802903B
:101B0000206880680006DBD4A06800284FF0000041
:101B10007FF43FAF01902168CA6801928968019102
:101B2000019936E7032034E7032032E7411E002005
:101B3000B0EB116F1CBF012070474EF21002CEF2C5
:101B4000000251604EF62351CEF20001F0230B70DB
:101B500007219060116070477047000070470000D7
:101B600010B590F83C20012A4FF0020251D080F8C5
:101B70003D200268D2F804E0D2F808C00C682EF0CC
:101B80007003234341F2FF74C4F20004A242536085
:101B90000EDC40F2FF73C4F200039A4216DCB2F18D
:101BA000804F2BD040F20043C4F2000324E000BF7A
:101BB00040F2FF33C4F201039A4213DC41F6000302
:101BC000C4F200039A4219D0002313E040F6000348
:101BD000C4F200039A4211D040F60043C4F200035D
:101BE0000AE000BF44F20003C4F201039A4205D0A8
:101BF00040F20043C4F201039A4204D149682CF038
:101C00008003194391600121002280F83D1080F883
:101C10003C20104610BD0000002804BF0120704782
:101C200010B5044690F83D0028B9002084F83C0027
:101C3000204600F01FF8022084F83D002068211D96
:101C400001F012FC012084F8460084F83E0084F87C
:101C50003F0084F8400084F8410084F8420084F892
:101C6000430084F8440084F8450084F83D000020D7
:101C700010BD000080B582B00068B0F1804F1CBF7D
:101C800002B080BD0020019043F64000C4F2020083
:101C90000168002241F0010101600068002100F0AC
:101CA0000100019001981C20FEF7FCFF1C2002B0EF
:101CB000BDE88040FEF7E2BF90F83D1001291CBF4F
:101CC00001207047022180F83D10006841F2FF7248
:101CD000C168C4F20002904241F00101C1600DDC14
:101CE00040F2FF71C4F20001884215DCB0F1804F70
:101CF0002AD040F20041C4F2000123E040F2FF315B
:101D0000C4F20101884213DC41F60001C4F2000173
:101D1000884219D0002113E040F60001C4F200010E
:101D2000884211D040F60041C4F200010AE000BF31
:101D300044F20001C4F20101884205D040F20041A2
:101D4000C4F20101884206D1816801F00701062929
:101D500004BF00207047016841F0010101600020CC
:101D60007047000080B590F83C20012A4FF0020235
:101D700000F0C28080F83D20D0F800C04FF67772A6
:101D8000DCF8083023EA0202CCF808200B684F2B5D
:101D900028DC1F2B44DD202B45D0302B43D0402B9B
:101DA00040F0AC80D1F804E0C968DCF82030DCF801
:101DB000202022F00102CCF82020DCF8182022F0AC
:101DC000F00242EA011123F00A0242EA0E02CCF8C4
:101DD0001810CCF82020DCF8081041F0470121F061
:101DE000300180E06F2B27DDB3F5005F48D0B3F5FD
:101DF000805F7AD0702B40F08180D1E901E3C9681F
:101E0000DCF8082043EA0E0322F47F4243EA012172
:101E10001143CCF80810DCF8081041F0770162E0BB
:101E20000BB1102B6AD1DCF8081021F070011943B6
:101E300041F0070157E000BF502B35D0602B5DD13A
:101E4000D1F804E0C968DCF8203023F01003CCF8A6
:101E50002030DCF81830DCF8202023F4704322F026
:101E6000A00243EA013142EA0E12CCF81810CCF875
:101E70002020DCF8081041F0670121F0100132E069
:101E8000D1E901E3C968DCF8082043EA0E0322F433
:101E90007F4243EA01211143CCF80810DCF8081016
:101EA00041F480411FE000BFD1F804E0C968DCF8CC
:101EB0002030DCF8202022F00102CCF82020DCF8D1
:101EC000182022F0F00242EA011123F00A0242EA4D
:101ED0000E02CCF81810CCF82020DCF8081041F0E5
:101EE000570121F02001CCF808100022012180F8D0
:101EF0003D10002180F83C10104680BD0122F5E71E
:101F00007047000010B5016804460869800744BFA7
:101F1000C8685FEA807039D40869400744BFC86860
:101F20005FEA40703ED40869000744BFC8685FEAB2
:101F3000007045D40869C00644BFC8685FEAC06045
:101F40004AD40869C0071CBFC8685FEAC07051D195
:101F50000869000644BFC8685FEA006052D4086997
:101F6000400644BFC8685FEA406053D408698006F1
:101F700046BFC8685FEA806010BD6FF0200220464F
:101F80000A61BDE81040FFF7E9BD00BF6FF0020035
:101F90000861012020778869800743D02046FFF739
:101FA000AFFF45E06FF004000861022020778869E8
:101FB00010F4407F40D02046FFF7A2FF42E000BF70
:101FC0006FF00800086104202077C86980073DD0C1
:101FD0002046FFF795FF3FE06FF0100008610820F2
:101FE0002077C86910F4407F3AD02046FFF788FF79
:101FF0003CE000BF6FF001000861204600F03EF8B1
:102000002168A5E76FF0800008612046FFF7A4FD76
:102010002168A4E76FF040000861204600F092F8C4
:102020002168A3E7204600F025F8204600F024F8B8
:102030002168002020776FE7204600F01BF820463B
:1020400000F01AF82168002020776CE7204600F0A5
:1020500011F8204600F010F821680020207769E789
:10206000204600F007F8204600F006F8216800201E
:10207000207766E77047000070470000B0B52DED8F
:10208000028B84B040F2E401C2F2000100680968EA
:10209000884203D004B0BDEC028BB0BD00F048FF15
:1020A00040F21000C2F2000090ED000A40F2800001
:1020B000C2F20000D0ED000A40F28400C2F200003B
:1020C00090ED001A40F28800C2F20000D0ED001A34
:1020D00001F026F840F23C00C2F200000068FEF772
:1020E000A0F9044640F24000C2F2000000680D462C
:1020F000FEF797F941EC180B40F24400C2F20000E1
:102100000068FEF78EF941EC100B06A022462B4624
:102110008DED008B8DED020B01F05AFB04B0BDEC90
:10212000028BB0BD726F6C6C3D256C662C7069744F
:1021300063683D256C662C7961773D256C660D0AD8
:102140000000000070470000002804BF0120704715
:1021500010B5044690F83D0028B9002084F83C00F2
:10216000204600F021F8242084F83D002068C16852
:1021700021F40051C160204601F014FA2068016981
:1021800021F490410161416921F02A014161C16856
:1021900041F40051C16000202021206484F83D10EA
:1021A00084F83E1010BD000080B586B0016841F291
:1021B0000000C4F20100814202D006B080BD00BF21
:1021C000002143F630020191C4F20202536900F586
:1021D000704043F010035361536903F010030193FF
:1021E000019B0191136843F001031360126802F030
:1021F00001020192019A4FF4C06201920222CDE9DC
:102200000221032104910721059101A9FEF7ECFBAE
:1022100006B080BD2DE9F04381B0044690F83D0042
:1022200020280DD10F4600294FF0010000F0DD807D
:102230001646002A00F0D98094F83C00012803D10A
:10224000022001B0BDE8F083012084F83C000020AA
:10225000206421201D4684F83D00FEF79FFCA684E3
:10226000E684A1680646B1F5805F03D120690028A5
:1022700000F01081B8460027002084F83C00E18C73
:102280002068002900F0908005F101090DE000BFF1
:10229000B8F1000F28D018F8011B4160E18C01391A
:1022A000E184E18C002900F07F8001680906EFD409
:1022B000B9F1000F0AD0FDB1FEF770FC801BA842F7
:1022C0001AD8206801680906F6D5E1E70168090611
:1022D000DED4016809065CBF01685FEA0161D7D4FA
:1022E00001680906F2D5D3E737F8021B4FF0000862
:1022F0006FF35F21D1E700BF206850E8030F21682A
:1023000020F4D07041E80302BAB3206850E8030F0C
:10231000216820F4D07041E8030272B3206850E8CD
:10232000030F216820F4D07041E803022AB320682B
:1023300050E8030F216820F4D07041E80302002A1E
:10234000DAD11AE0206850E8050F216820F001007A
:1023500041E80502DAB1206850E8050F216820F055
:10236000010041E8050292B1206850E8050F21689C
:1023700020F0010041E805024AB1206850E8050F4D
:10238000216820F0010041E80502002ADAD120206E
:1023900084F83D0084F83E00002084F83C000320CF
:1023A00001B0BDE8F08300BF0168490619D4FDB152
:1023B000691C0DD10168490613D4016849065CBF48
:1023C00001685FEA41610CD401684906F2D508E072
:1023D000FEF7E4FB801BA8420AD82068006840068C
:1023E000F6D5202084F83D00002001B0BDE8F08340
:1023F000206850E8030F216820F4D07041E8030200
:10240000E2B3206850E8030F216820F4D07041E85F
:1024100003029AB3206850E8030F216820F4D070BB
:1024200041E8030252B3206850E8030F216820F40A
:10243000D07041E80302002ADAD11FE0206850E89A
:10244000050F216820F0010041E80502002A9ED016
:10245000206850E8050F216820F0010041E80502DE
:10246000002A3FF494AF206850E8050F216820F05F
:10247000010041E80502002A3FF489AF206850E8D6
:10248000050F216820F0010041E80502002AD5D19E
:102490007DE700BF4FF00008EEE60000FEE7000019
:1024A0002DE9F04381B015468946064600F0ACFAA6
:1024B00040F20008C4F20208404610210022FEF754
:1024C00067FB40F28C07BB20C2F200078DF80300C7
:1024D0000DF10301384601224FF0FF33FFF770F88A
:1024E00040F22004C2F2000404F13A0138461522F9
:1024F0004FF0FF33FEF76AFF404610210122FEF73E
:1025000047FB608F9FED342A00BA000C3080A08F0B
:10251000B7EE003A00BA000C7080E08F00BA000CF1
:10252000B080B4F8420000BA000C2880B4F844002F
:1025300000BA000C6880B4F8460000BA000CA8800D
:10254000B4F94800B4F94A1000EE100A6078B8EE09
:10255000C00A803801EE100AB8EEC11A21EE021A44
:1025600031EE031A21EE000ABDEEC00A10EE100A89
:10257000B4F94C20A9F80000A07800EE101A8038B9
:1025800001EE100AB8EEC11A21EE021AB8EEC00A26
:1025900031EE031A21EE000ABDEEC00A10EE100A59
:1025A000A9F80200E07800EE102A803801EE100A47
:1025B000B8EEC11A21EE021AB8EEC00A31EE031AC3
:1025C00021EE000ABDEEC00A10EE100AA9F80400C0
:1025D00001B0BDE8F08300BF0000803B2DE9F04F63
:1025E00081B001240DF103006B2101228DF803401D
:1025F00000F00CFA0A200A26FEF7E2F94FF0200854
:102600000DF103006A2101228DF8038000F0FEF92C
:102610000A20FEF7D5F94FF00D090DF10300242132
:1026200001228DF8039000F0F1F90A20FEF7C8F9B5
:102630000C250DF10300252101228DF8035000F037
:10264000E5F90A20FEF7BCF90DF10300262101226D
:102650008DF8036000F0DAF90A20FEF7B1F94FF0C7
:10266000000B0DF10300632101228DF803B000F08F
:10267000CDF90A20FEF7A4F981260DF103002721E8
:1026800001228DF8036000F0C1F90A20FEF798F9E5
:1026900080208DF803000DF103006B21012200F072
:1026A000B5F90A20FEF78CF90A20FEF789F90DF139
:1026B0000300252101228DF8035000F0A7F90A201C
:1026C000FEF77EF90B208DF803000DF103002621A3
:1026D000012200F09BF90A20FEF772F90DF10300C8
:1026E000632101228DF8034000F090F90A20FEF7E3
:1026F00067F90DF10300272101228DF8036000F036
:1027000085F90A20FEF75CF90DF103006B21012227
:102710008DF8034000F07AF90A20FEF751F900F035
:1027200073F90026C4F20206304610210022FEF79B
:102730002FFA40F28C07F520C2F200078DF8030053
:102740000DF10301384601224FF0FF33FEF738FF49
:1027500040F2200AC2F2000A0AF13A053846294638
:1027600001224FF0FF33FEF731FE304610210122E7
:10277000FEF70EFA9AF83A0000F0FD00712840F0DA
:102780003F810DF103006C2101228DF803B000F0B0
:102790003DF90A200A26FEF713F90DF103001C216A
:1027A00001228DF803B000F031F90A20FEF708F994
:1027B00008208DF803000DF103001B21012200F019
:1027C00025F90A20FEF7FCF80DF103001D21012276
:1027D0008DF8034000F01AF90A20FEF7F1F80DF128
:1027E00003001A2101228DF8034000F00FF90A209E
:1027F000FEF7E6F80DF10300192101228DF80340E0
:1028000000F004F90A20FEF7DBF80DF103006A215D
:1028100001228DF8038000F0F9F80A20FEF7D0F8C5
:102820000DF10300242101228DF8039000F0EEF851
:102830000A20FEF7C5F8002001212A4600F076FFA5
:102840009AF83A00482840F0DB800C270DF103008D
:10285000252101228DF803704FF0010800F0D6F811
:102860000A20FEF7ADF80DF10300262101228DF8B4
:10287000036000F0CBF80A20FEF7A2F800240DF167
:102880000300632101228DF8034000F0BFF80A2005
:10289000FEF796F881260DF10300272101224FF063
:1028A0000A098DF8036000F0B1F80A20FEF788F8F5
:1028B0006420FEF785F80DF10300252101228DF833
:1028C000037000F0A3F80A20FEF77AF80DF1030078
:1028D000262101228DF8039000F098F80A20FEF7D7
:1028E0006FF80F208DF803000DF103006321012222
:1028F00000F08CF80A20FEF763F80DF103002721A1
:1029000001228DF8036000F081F80A20FEF758F8E4
:102910006420FEF755F80AF101021020032100F0AF
:1029200005FF0DF10300252101228DF8037000F051
:102930006DF80A20FEF744F80DF10300262101226C
:102940008DF8039000F062F80A20FEF739F80DF1D7
:102950000300632101228DF8034000F057F80A209C
:10296000FEF72EF80DF10300272101228DF80360F8
:1029700000F04CF80A20FEF723F86420FEF720F858
:102980000DF10300252101228DF8037000F03EF8BF
:102990000A20FEF715F80DF10300262101228DF81B
:1029A000039000F033F80A20FEF70AF816208DF89D
:1029B00003000DF103006321012200F027F80A2033
:1029C000FDF7FEFF0DF10300272101228DF80360C2
:1029D00000F01CF80A20FDF7F3FF6420FDF7F0FF7C
:1029E0000DF103006B2101228DF8038000F00EF839
:1029F0000A20FDF7E5FF032007212A4600F096FE96
:102A0000204601B0BDE8F08F704700002DE9F04F7F
:102A100083B040F2000815460C460646C4F2020890
:102A2000FFF7F2FF4046102100224FF00009FEF7A9
:102A3000AFF840F28C004FF4805AC2F200000DF162
:102A4000090102AA01238DF809408DF80890CDF8FC
:102A500000A0FEF7DFFED5B140F28C0B013EC2F2C2
:102A6000000B0DF10B070DF10A0400BF16F8010F62
:102A700039468DF80B005846224601238DF80A90FE
:102A8000CDF800A0FEF7C6FE013D2804EED1404679
:102A900010210122FEF77CF803B0BDE8F08F0000A2
:102AA0002DE9F04387B0002743F6300006970197E1
:102AB000C4F20200016840F2000841F080010160A8
:102AC0000168C4F2020801F08001019101990197A7
:102AD000016808F5006541F0040101600168012208
:102AE00001F0040101910199019701680E2641F05E
:102AF0000101016000680E2100F0010001900198C1
:102B000028460124FEF744F84046102101224FF0E8
:102B10001009FEF73DF8CDE9026402AE28463146C1
:102B2000CDE90477FDF760FF40463146CDE90294D8
:102B3000CDE90447FDF758FF07B0BDE8F08300007A
:102B400080B540F28C0043F20001C2F20000C4F2F2
:102B500001014FF48272002380E80E0000F114019D
:102B60004FF4007C4FF0280E81E808500A21C0E99C
:102B70000333C0E90833C0E90A31FEF797FB0028A8
:102B800008BF80BDBDE88040FDF714BF80B586B0AA
:102B900040F2E4000021C2F200004FF0804242F215
:102BA000CF034FF0090C0591CDE90311CDE90011D8
:102BB000C0E90023C0E9021C01618161FFF72CF824
:102BC000002818BFFDF7F6FE4FF48050029040F247
:102BD000E400C2F2000002A9FFF7C4F8002818BF01
:102BE000FDF7E8FE40F2E400C2F200006946FEF79D
:102BF000B7FF002818BFFDF7DDFE06B080BD00005E
:102C000080B540F22C1041F20001C2F20000C4F283
:102C1000010100234FF00C0C4FF4E13280E80E006C
:102C2000C0E90333C0E905C3C361FFF78DFA00288B
:102C300008BF80BDBDE88040FDF7BCBE45F6DF1291
:102C4000F5EE401A40F2080140F27000C5F6377206
:102C5000F1EE10FAC2F20001C2F200000AD1B5EEA4
:102C6000402AF1EE10FA05D1F5EE402AF1EE10FA05
:102C700000F0B28022EE023A21EEA14A34EE033A8D
:102C800022EEA24A34EE033A13EE103AA2EB6303AB
:102C9000BEEE005A04EE103A23EE053A23EE043A53
:102CA00023EE043AB7EE086A33EE063A23EE043A0E
:102CB00023EE214A23EE026A90ED042A90ED067A73
:102CC000D1ED021AD0ED053A23EE223A63EEA11AB5
:102CD00022EE072A91ED027AD0ED042AD0ED053AD2
:102CE000D0ED064A72EE611A23EEA42A27EE227A6C
:102CF000D1ED022AD1ED023A37EE027A22EEA32A72
:102D0000D0ED062AD0ED063A32EE052A22EEA35A7D
:102D100035EE025A27EE032A66EE052A25EE045AFE
:102D200023EE213A33EE453A21EE865A90ED006AC1
:102D300024EE074AB5EE406A32EEC22AF1EE10FAEE
:102D400034EE454A32DD90ED005A9FED736A22EE73
:102D5000055A90ED017A25EE065A35EE075A80EDB8
:102D6000015A90ED005A90ED027A23EE055A25EEB5
:102D7000065A35EE075A80ED025A90ED005A90ED52
:102D8000037A24EE055A25EE065A35EE075A80EDF1
:102D9000035A90ED015A35EE000A90ED025A90ED7B
:102DA000036A75EE200A36EE011A03E00023436041
:102DB0008360C36091ED005A25EE022A91ED005A1E
:102DC00032EE000A25EE032A91ED003A72EE200A57
:102DD00023EE042A32EE011A9FED502A91ED024AA9
:102DE00090ED045A90ED056A20EE020A20EE823A38
:102DF000D0ED060A21EE021A23EE062A25EE407ACD
:102E000037EE422A20EE817AD1ED020A32EE472ACD
:102E100030EE822A81ED022AD0ED060A21EE062A42
:102E200024EE007A37EE022A20EE837AD0ED040AEF
:102E300032EE472A30EE822A80ED042AD0ED060ACF
:102E400021EE052A24EE037A37EE422A20EE807A1C
:102E5000D0ED050A37EE022A30EE822A80ED052AEF
:102E600023EE052A24EE011A31EE021A26EE000A9C
:102E700090ED062A31EE400A32EE000A80ED060A95
:102E800091ED020A91ED021A90ED042A90ED043AB8
:102E900020EE010A22EE032A90ED051A90ED053A84
:102EA00030EE020A21EE031A90ED062A90ED063A62
:102EB00031EE000A22EE031A31EE000A10EE103A4B
:102EC000A2EB6302BEEE002A01EE102A20EE020AF7
:102ED00020EE010A20EE010AB7EE082A30EE020ABF
:102EE00091ED022A20EE010A22EE001A81ED021A6B
:102EF00090ED041A21EE001A80ED041A90ED051AE7
:102F000021EE001A80ED051A90ED061A21EE000A56
:102F100080ED060A704700BF0AD7233C0AD7A33BBF
:102F2000FEE70000FEE70000704700000000000020
:102F30002DE9F04F81B02DED028B88B005A80DF181
:102F40001A010DF10E02FFF7ABFA40F22002C2F2B5
:102F5000000202F10409BDF9140099E802031269A4
:102F6000401A00EE100AB8EEC00ABDF916A0BDF96D
:102F700018B010EE100A0092FDF753FA9FED5E0BA9
:102F800054EC105B2A462346FDF74BF99FED5C0B92
:102F900056EC107B3A463346FDF743F9FDF722FA2B
:102FA0000290AAEB080000EE100AB8EEC00A10EE7C
:102FB000100AFDF736FA2A462346FDF732F93A465B
:102FC0003346FDF72EF9FDF70DFA0190ABEB090042
:102FD00000EE100AB8EEC00A10EE100AFDF721FA52
:102FE0002A462346FDF71DF93A463346FDF719F9FF
:102FF000FDF7F8F9BDF91A10009A9FED478A891A72
:1030000000EE101AB8EEC00A80EE080A0090BDF972
:103010001C80BDF91E9010EE100AFDF702FA9FED1C
:103020003A0B57EC104B22463B46FDF7FAF89FED62
:10303000380B55EC106B32462B46FDF764F9FDF763
:10304000D1F940F2200AC2F2000ADAF814108346DD
:10305000A8EB010100EE101AB8EEC00A80EE080AD3
:1030600010EE100AFDF7DDF922463B46FDF7D9F8D0
:1030700032462B46FDF747F9FDF7B4F9DAF8181098
:103080008046A9EB010100EE101AB8EEC00A80EEEE
:10309000080A10EE100AFDF7C4F922463B46FDF778
:1030A000C0F832462B46FDF72EF9FDF79BF901EEED
:1030B000108AF8EEC10A01EE100A029800EE10BA6A
:1030C00002EE100A0198F8EEC21A02EE100A0098F9
:1030D000B8EEC00A03EE100AB8EEC11AB8EEC22A62
:1030E000F8EEC32A08B0BDEC028B01B0BDE8F04F8A
:1030F000FFF7A4BD00BF00BF9A9999999999234001
:10310000000000000000103F182D4454FB2109402E
:1031100000000000008066400000834200000000C4
:1031200070B52DED108BB0EE40AAB0EE419A21EEB5
:10313000210A2AEE201A31EE000A29EE09DA20EEE1
:10314000A01A30EE000A31EE0D1A31EE011AB7EE78
:1031500000EA10EE100AB0EE618AB0EE60BA3EEE00
:1031600041FAFDF75EF941EC1C0B1FEE100AFDF76A
:1031700058F941EC110BB0EE4C0AF0EE6C0A00F07D
:103180006BFE51EC100BFDF75FF928EE0B0A2AEEEF
:10319000091A31EE400A30EE000A40F2200610EE25
:1031A000101AC2F20006BDEEC01AF061084611EE18
:1031B000104AFDF736F941EC100B6CB142F2FB10EE
:1031C000C3F6F97060F31E0142F61850C5F2444090
:1031D00041EC100B02E000BF00F022FB51EC100BA1
:1031E000FDF732F92BEE090A2AEE081A31EE000A31
:1031F00028EE081A30EE000A3DEE011A306231EE78
:10320000011A10EE100A3EEE419AFDF70AF941EC60
:10321000180B19EE100AFDF704F941EC110BB0EE92
:10322000480AF0EE680A00F017FE51EC100BFDF7AB
:103230000BF996ED070A9FED1C9A08EE100A20EE96
:10324000090A96ED08AA10EE100AFDF7EAF89FEDBC
:10325000140B54EC105B2A462346FDF754F8FDF797
:10326000F3F82AEE090AF06110EE100AFDF7D9F81A
:103270002A462346FDF747F8FDF7E6F828EE090A47
:10328000306210EE100AFDF7CCF82A462346FDF70F
:103290003AF8FDF7D9F87062BDEC108B70BD00BF35
:1032A000182D4454FB210940000034432DE9F0411E
:1032B00082B01E4690460D460446FDF76FFC301A5C
:1032C00000EB0807FDF76AFC40F21C01C2F20001A6
:1032D0000968C1F3CB317943019121688A682A409A
:1032E000AA4227D1064618F101001FD0FDF756FC6F
:1032F000801BB84222D2019801990028A1F1010156
:1033000001912168896808BF074601EA0500A842C3
:10331000ECD00FE088682840A8420BD1886828408C
:10332000A84207D188682840A84203D1886828406D
:10333000A842EFD0002002B0BDE8F081D4E900013E
:103340004268B1F5827F22F0E00242600AD1A168B2
:10335000B1F5004F02D0B1F5806F03D1016821F0C3
:1033600040010160A16AB1F5005F07D1016821F455
:1033700000510160016841F400510160012084F8AE
:103380005100002084F85000032002B0BDE8F08115
:1033900070470000FDF708BCB0B592B0002443F6BA
:1033A0004000CDE90A44CDE908440594CDE9034441
:1033B000CDE901440094C4F202000168022541F005
:1033C00080510160006800F080500090009847F242
:1033D00000000094C4F20000016841F480410160E3
:1033E0000068A82100F48040009000980120069019
:1033F0004FF4803007904FF480000D9004200E9021
:10340000119006A80C95CDE90F15FDF795FD28B193
:10341000EFF3108072B600BFFEE700BF0F20CDE9CA
:1034200001054FF4A05004904FF48050059001A87E
:1034300005210394FDF772FC20B1EFF3108072B602
:10344000FEE700BF12B0B0BD4EF68850CEF20000CD
:10345000016841F4700101607047000040F2E4002F
:10346000C2F20000FEF74EBD10B540F6FF3E036805
:10347000C4F2000E40F2004C7045C4F2010C27DC8F
:10348000B0F1804F31D040F20042C4F200029042CD
:103490002BD040F60002C4F20002904225D041F643
:1034A000FF72C4F20002904229DC70453CDCB0F1AE
:1034B000804F5FD040F20042C4F20002904259D0E7
:1034C00040F60002C4F20002904253D056E000BF22
:1034D00040F60042C4F20002904206D0604504D09B
:1034E0000022C4F201029042D9D14A6823F070034D
:1034F000134341F6FF72C4F200029042D5DD43F659
:10350000FF72C4F20102904222DC42F20002C4F2D5
:10351000000290422ED00022C4F20102904229D033
:10352000604527D02AE000BF40F60042C4F2000206
:1035300090421FD041F60002C4F20002904219D01E
:1035400041F60042C4F20002904213D016E000BFE0
:1035500044F20002C4F2010290420BD044F6000291
:10356000C4F20102904205D044F20042C4F20102CA
:10357000904203D1CA6823F44073134323F08002BE
:103580004B69D1F800E08C681A430260C46240F4D1
:103590008062C0F828E0624504BF09690163012127
:1035A000416110BD10B504460068D4E902C2236928
:1035B000016921F4405111430161626943EA0C0140
:1035C000E3691143C268194349F20C639A431143FA
:1035D000C1604169A26921F4407141F20043114385
:1035E00040F48062C4F201039A42416102D1FDF7C6
:1035F00059FC01E0FDF742FCE16963681922B1F56D
:10360000004FA0FB020123D15A00DB0FFCF7D8FDCD
:1036100048F21F51C5F2EB11A0FB01235A094FF6E6
:103620009C73C0F6FF7303F1805302FB0300322347
:1036300003EBC000A0FB01014FF4F87000EA111089
:1036400000EB0210C1F3421108442168886010BDEC
:103650009A009B0FFCF7B4FD48F21F51C5F2EB1125
:10366000A0FB01235A094FF69C73C0F6FF7302FBBF
:103670000300322303EB0010A0FB0101F02000EA5D
:10368000511000EB0210C1F3431108442168886017
:1036900010BD0000FEE7000080B582B0019040F24E
:1036A0002C10C2F2000001A901224FF6FF73FEF7B1
:1036B000B1FD019802B080BDFDF784FAFFF76CFE02
:1036C000FFF7EEF9FFF79CFAFFF73AFAFFF75EFA19
:1036D000FEF784FF10A10AA2002808BF1146084681
:1036E00001F0EEF9FDF7FCF84FF47A70FDF768F998
:1036F00040F2E400C2F20000FEF7DEFAFEE700BF8F
:103700004D5055393235305F496E69742073756399
:1037100063657373000000004D5055393235305FDA
:10372000496E6974206661696C656400F0B581B0AA
:1037300006468C2015460C468DF80000684625216B
:103740000122FFF763F90A20FDF73AF90DF10100B4
:10375000262101228DF80160FFF758F90A20FDF7B4
:103760002FF944F080008DF802000DF102002721AE
:103770000122FFF74BF90A20FDF722F90120FDF79E
:103780001FF9FFF741F90026C4F202063046102166
:103790000022FDF7FDF940F28C07C920C2F20007B4
:1037A0008DF803000DF10301384601224FF0FF337D
:1037B000FDF706FF3846294622464FF0FF33FDF756
:1037C00005FE304610210122FDF7E2F901B0F0BDFF
:1037D0000FB4054B10B503A9044A029800F0C4FDCC
:1037E00010BC5DF814FB00009936000800000020B2
:1037F00003B401984100009850EAC12018BF04208A
:103800004A0D18BF40F0010040F2FF72B2EB515F69
:1038100008BF40F00200012808BF052002B0704731
:1038200070B5C1482DED020B2DED0E8B82B0119DB0
:1038300025F000449FEDBEDB9FEDBFEB84423EDBF5
:10384000A4F140511098A1F17F6108430FD0BC480A
:10385000844202DC28D1109830B39DED100B02B0E9
:10386000BDEC0E8B02B0BDE8704000F071BC9DED68
:10387000100B53EC1D2B51EC100BFCF7D2FC9DED03
:10388000100B41EC180B53EC1E2B51EC100BFCF7FA
:10389000C8FC53EC182BFCF7BCFE41EC100B02B03B
:1038A000BDEC0E8B02B070BD012000F095FC02B0A3
:1038B000BDEC0E8B02B0BDE8704000F05DBCA148CD
:1038C0009FEDA18B844256DA9DED100BB4F1795F28
:1038D0000ADA51EC100BFFF78BFF042808BF00F049
:1038E0005BFC9DED100BDAE753EC102B51EC100B49
:1038F000FCF797FC41EC190B95480621B0EE490AFC
:10390000F0EE690A784400F0A7FB53EC192B51EC58
:10391000100BFCF786FC41EC1A0B8E48B0EE490AFE
:10392000F0EE690A0421784400F096FB53EC192B61
:1039300051EC100BFCF775FC53EC182BFCF769FEEF
:1039400041EC100B51EC1A0B53EC102BFCF7DBFC89
:10395000CDE900019DED000B53EC102B9DED100BFC
:1039600051EC100BFCF75DFC9DED101B53EC112B83
:10397000FCF74FFED2E09DED100B51EC100B01F067
:1039800092F853EC182BFCF7E8FE9FED730BCDE992
:10399000000153EC102B9DED000B51EC100BFCF7CC
:1039A00040FC41EC190B6E480621B0EE490AF0EEDE
:1039B000690A784400F050FB53EC192B51EC100BC2
:1039C000FCF72FFC41EC1B0B6648B0EE490AF0EE09
:1039D000690A0421784400F03FFB53EC192B51ECA9
:1039E000100BFCF71EFC53EC182BFCF712FE41ECFD
:1039F0001C0B51EC190B01F075F841EC180B5A48EF
:103A00009FED5BABA04222DC53EC1C2B51EC1B0B5B
:103A1000FCF779FCCDE900019DED000B51EC180B92
:103A200053EC102BFCF7FDFB53EC182BFCF7F1FDCE
:103A300053EC1A2BFCF7F5FB53EC1D2BFCF78AFE1D
:103A400053EC1E2BFCF789FE41EC100B5FE08DED73
:103A5000008B002000909DED000B51EC180B53ECF7
:103A6000102BFCF7D6FD9DED000B41EC1E0B53EC2B
:103A7000102B51EC100BFCF7D4FB53EC192BFCF77B
:103A80006CFE53EC1E2BFCF73EFC41EC190B53EC87
:103A90001C2B51EC1B0BFCF736FC41EC1B0B53ECC5
:103AA0001A2B51EC190BFCF7BCFB53EC1D2BFCF74C
:103AB00054FE41EC190B53EC1A2B51EC180BFCF78C
:103AC000B0FB53EC1B2BFCF7ACFB53EC192BFCF7B6
:103AD00041FE9DED000B41EC180B53EC1A2B51EC01
:103AE000100BFCF79EFB9FED249B53EC192BFCF76E
:103AF00034FE41EC100B51EC180B53EC102BFCF77F
:103B000029FE53EC192BFCF728FE41EC100B002D7D
:103B10003FF7C5AE51EC100B81F0004141EC100BAA
:103B2000BDE60000000000000000F03F00000000C3
:103B3000075C143326A6913C182D4454FB21F93F11
:103B40000000F07F0000E03F000000000000F03FB8
:103B5000501200005E120000000000000000E03F74
:103B6000A2110000B01100003333EF3F000000004D
:103B70000000000000000040182D4454FB21E93FE4
:103B800070B59B482DED020B2DED068B079D25F0A2
:103B90000044A04218DC9748844202DC0AD106980F
:103BA00040B19DED060BBDEC068B02B0BDE8704048
:103BB00000F0CEBA002DCCBF9FED8F0B9FED900B88
:103BC000BDEC068B02B070BD8F48A04215DD8F485A
:103BD000A042D8BF4FF0FF3458DD9DED060B51ECED
:103BE000100BFFF705FE042808BF00F0D5FA9DED85
:103BF000060BBDEC068B02B070BD9DED060B51ECC3
:103C0000100B00F050FFCDE9060181489FED828B3B
:103C1000A0423CDD8248A0421FDD00249FED82AB24
:103C20009DED060B53EC1A2B51EC100BFCF7F1FC3D
:103C30009DED060B41EC190B53EC1A2B51EC100BBC
:103C4000FCF7EFFA53EC182BFCF784FD53EC192B1F
:103C5000FCF759FBCDE9060149E09DED060B012477
:103C600053EC182B51EC100BFCF7D3FC9DED060B1D
:103C700041EC190B53EC182B51EC100BFCF76AFDBF
:103C800053EC192BFCF73FFBCDE906012FE0684808
:103C9000A0421FDD02249FED689B9DED060B53ECB7
:103CA000192B51EC100BFCF7BCFA53EC182BFCF75A
:103CB000B0FC9DED060B41EC180B53EC192B51ECAD
:103CC000100BFCF747FD53EC182BFCF71CFBCDE960
:103CD00006010CE09DED060B032453EC102B9FED29
:103CE000580B51EC100BFCF70EFBCDE906019DEDD6
:103CF000060B53EC102B51EC100BFCF792FA41EC35
:103D0000180B53EC182BFCF78CFA41EC190B4E48AE
:103D10000621B0EE490AF0EE690A784400F09CF9F9
:103D200053EC182B51EC100BFCF77BFA41EC180B01
:103D30004648B0EE490AF0EE690A0521784400F0E1
:103D40008BF953EC192B51EC100BFCF76AFA41EC90
:103D5000100B51EC180B53EC102B002C0EDAFCF767
:103D600058FC9DED061B53EC112BFCF75AFA9DED08
:103D7000061B53EC112BFCF7F0FC35E0FCF749FC7B
:103D80009DED061B53EC112BFCF74BFA41EC100B8D
:103D90002F48784400EBC40090ED001B51EC100B51
:103DA00053EC112BFCF7D6FC9DED061B53EC112BAD
:103DB000FCF7D0FC41EC100B2648784400EBC40023
:103DC00090ED001B51EC100B53EC112BFCF7C5FCD4
:103DD00041EC100B002DA2BFBDEC068B02B070BDF4
:103DE00051EC100B81F0004141EC100B01E7000099
:103DF000000010440000F07F182D4454FB21F93FCF
:103E0000182D4454FB21F9BF0000DC3F0000203E88
:103E10000000F33F00000000000000000000F03F41
:103E20000000E63F0000000000000000000000402D
:103E30000080034000000000000000000000F83F88
:103E4000000000000000F0BFF20E0000A80E00000D
:103E5000320E0000EA0D000070B56F4E2DED040B20
:103E60002DED048B82B0DDF824C0DDE907235C4230
:103E70002CF000411C4341EAD474069D22F000401E
:103E8000B44205D86C422C4340EAD474B4420BD9F6
:103E90009DED081B9DED060B02B0BDEC048B04B03C
:103EA000BDE8704000F05EB9ACF14054A4F17F640D
:103EB0001C430BD0022404EAAC7444EAD2740543D8
:103EC0009FED578B9FED582B07D015E09DED060B0E
:103ED00051EC100B00F0DFFD42E0002C11BF012C73
:103EE0009DED060B02B0BDEC048B04BF04B070BDA9
:103EF000022C38D0032C3BD00B439FED4D1B9FED84
:103F00004E0B0AD0B14218D1B04209D121F0804104
:103F100020F08040099107900FE0002A15DA10E0A8
:103F2000474B7B44002C08BF93ED000B0DD0012CB8
:103F300010D0022C17D0032C1AD0B0421DD1002A69
:103F400003DAB0EE410AF0EE610A02B0BDEC048B78
:103F500004B070BD93ED000B51EC100B81F00041EB
:103F600041EC100BF1E7B0EE480AF0EE680AECE71E
:103F7000B0EE420AF0EE620AE7E7401A00159FED44
:103F8000329B3C28C8BF8DED000B17DCBCF1000F45
:103F9000BCBF10F13C0F8DED009B0FDB9DED080BBE
:103FA00053EC102B9DED060B51EC100BFCF7ABF90D
:103FB00000F079FD00F06FFDCDE90001B4B1012CF6
:103FC00010D0022C9FED220B53EC102B9DED000B1B
:103FD00051EC100B19D0FCF7BDFB53EC182BFCF780
:103FE000B9FBBDE7019880F0004001909DED000B0A
:103FF00053EC192B51EC100BFCF7CAFB04BF022049
:1040000000F0EAF89DED000B9FE7FCF7A3FB53ECF3
:10401000182BFCF7A2FBA3E70000F07F00000000D4
:10402000182D4454FB210940182D4454FB2109C08C
:10403000182D4454FB21F9BF182D4454FB21F93F9E
:104040001A0D000000000000000000000000000049
:10405000075C143326A6A13C70B504462DED028BF7
:104060004D1E00EBC500B0EE408AF0EE608A90ED88
:10407000000B35F0060017D053EC182B51EC100B49
:10408000FCF7CFF841EC100B6D1E04EBC50090ED72
:10409000001B51EC100B53EC112BFCF7BAFA41EC5E
:1040A000100B35F00600E7D1022D36D0042D1CD0C0
:1040B000062D1CBFBDEC028B70BD53EC182B51ECD0
:1040C000100BFCF7AEF894ED0A1B53EC112BFCF728
:1040D000A0FA53EC182BFCF7A4F894ED081B53EC52
:1040E000112BFCF796FA41EC100B53EC182B51EC0A
:1040F000100BFCF796F894ED061B53EC112BFCF714
:1041000088FA53EC182BFCF78CF894ED040B53EC65
:10411000102BFCF77EFA41EC100B53EC182B51ECF2
:10412000100BFCF77EF894ED021B53EC112BFCF7FF
:1041300070FA53EC182BFCF774F894ED001B53EC59
:10414000112BFCF766FABDEC028B41EC100B70BD35
:1041500010B553EC102B51EC100BFCF75AFA41EC54
:10416000100B10BD10B553EC112B51EC100BFCF7DC
:1041700050FA41EC100B10BD9FED050B10B553EC40
:10418000102B51EC100BFCF7BEF841EC100B10BDDE
:1041900000000000000000009FED050B10B553EC7F
:1041A000102B51EC100BFCF73CF841EC100B10BD40
:1041B000000000000000001002E008C8121F08C143
:1041C000002AFAD170477047002001E001C1121F98
:1041D000002AFBD1704700000149086070470000C9
:1041E000040000202DE9FF5F82B00021DDE90430EA
:1041F000020DDDF840B0034318D044F61050A2F28F
:10420000FF3242431514119801281FD0A5EB0B0073
:10421000401C5FEA000A4FF000064E4FDFF838916D
:10422000B046504615D5CAF1000413E01198012498
:104230004AA3012801D16FEA0B010298119AC0E943
:104240000031C0E9024206B0BDE8F09FCBF10000AA
:10425000DFE704460021404A491842EB0450CDE90B
:10426000001012E0E00707D032463B464046494680
:10427000FBF7D7FF8046894632463B461046194633
:10428000FBF7CFFF06460F466410002CEAD1DDE9AC
:104290000401DDE90023BAF1000F06DAFBF7C1FFE4
:1042A00042464B46FBF7BDFF05E0FCF72CF84246C3
:1042B0004B46FCF728F804460E460022284BFCF734
:1042C0007FFA03D84FF0FF30014607E00022254B6C
:1042D00020463146FCF79DF9FCF742FA102409E02C
:1042E000002C0ADB0A220023FBF76AFF039B303213
:1042F0001A55641E50EA0102F2D1641C039AC4F1FB
:1043000011031444119A012A03D0012208430DD14C
:104310000AE0084304D000204FF0110B119072E71F
:10432000A3EB0B056D1E0DE05B4504DD4FF00002B5
:1043300005F1010504E003DA4FF00002A5F10105E3
:10434000002AECD002981199C0E90231C0E9004579
:1043500079E70000000014400000F03F300000004A
:104360000000F0430000E03F2DE9FF4F95B09B4671
:104370008946064600250FE2252877D100242746E6
:10438000F84A0121059400E0044316F8013F203B60
:1043900001FA03F01042F7D130782A2811D06FF0DB
:1043A0002F033078A0F13002092A16D8059A44F07C
:1043B000020402EB820203EB42021044761C0590D9
:1043C000EFE759F8042B0592002A03DA504244F42F
:1043D0000054059044F00204761C30782E2816D143
:1043E00016F8010F44F004042A280DD06FF02F02B4
:1043F0003078A0F13003092B09D807EB870302EBD3
:104400004303C718761CF3E759F8047B761C307811
:104410006C280FD006DC4C2817D068280DD06A28ED
:1044200014D104E0742810D07A280FD10DE044F4A0
:1044300000140AE044F4801401E044F4401472785B
:10444000824202D104F58014761C761C30786628EE
:104450000BD013DC582877D009DC002875D045280C
:10446000F6D04628F4D047281AD19DE118E06328F9
:1044700035D0642879D0652812D195E1702873D0A1
:1044800008DC6728F1D069286FD06E280DD06F281E
:1044900006D1B5E073282CD0752875D0782874D053
:1044A0005A46179990476D1C75E1C4F302500228D3
:1044B00009D003280DD0D9F8001004280DD00D60C4
:1044C00009F1040967E1D9F80010EA17C1E90052BF
:1044D000F6E7D9F800100D80F2E70D70F0E719F853
:1044E000041B8DF8001000208DF80100EA46012021
:1044F00003E059F804AB4FF0FF3061074FF00001C3
:1045000002D40DE008F101018846B9420FDA804576
:10451000F8DB1AF808100029F4D108E008F10101CD
:1045200088468142FADB1AF808100029F6D105986E
:104530005B46A0EB080721463846179A00F094FA2C
:10454000284400EB080507E04DE029E10DE01AF8EA
:10455000010B5A4617999047B8F10108F7D25B460C
:1045600021463846179A13E142E00A220092C4F32A
:1045700002524FF0000A022A08D059F804CB032A4D
:104580004FEAEC710AD00DE029E02AE009F10701B9
:1045900021F00702F2E802C1914609E00FFA8CFC13
:1045A0004FEAEC71042A03D14FFA8CFC4FEAEC710C
:1045B000002907DA0A460021DCF1000C61EB020158
:1045C0002D2202E0220504D52B228DF804200122A1
:1045D00003E0E20701D02022F7E7904659E00A21E4
:1045E00002E010220DE010214FF0000A00910BE0D4
:1045F00010224FF0000A44F004040827009203E060
:1046000008224FF0000A0092C4F30252022A05D099
:1046100059F804CB0021032A08D009E009F1070169
:1046200021F00702F2E802C1914605E01FFA8CFC76
:10463000042A01D10CF0FF0C4FF00008220728D506
:10464000702806D0009B83F0100353EA0A0305D0BC
:104650000EE040228DF80420012208E05CEA01020D
:1046600006D030228DF804208DF8050002229046F5
:10467000009B83F0080353EA0A030AD15CEA0102B3
:1046800001D1620705D530228DF804204FF00108D2
:104690007F1E582804D034A003900EA802900DE08D
:1046A00036A0F9E753466046009AFBF789FD844639
:1046B0000398825C0298401E029002705CEA01003E
:1046C000F0D1029806A9081A00F1200A600702D565
:1046D00024F4803400E00127574502DDA7EB0A00EF
:1046E00000E0002000EB0A01009005984144401AC8
:1046F0000590E00306D45B462146179A059800F022
:10470000B3F90544002706E001A85A46C05D179991
:1047100090476D1C7F1C4745F6DBE0030CD55B46DC
:104720002146179A059800F09FF9054404E03020CF
:104730005A46179990476D1C0099481E0090002911
:10474000F5DC08E0029802995A460078491C02916B
:10475000179990476D1CBAF10001AAF1010AF1DC2A
:1047600065E1000009280100303132333435363735
:1047700038396162636465660000000030313233AD
:10478000343536373839414243444546000000004D
:1047900000F058F90544761C307800287FF4ECAD21
:1047A00019B02846BDE8F08F620700D4062709F14A
:1047B000070222F0070CFCE80223E14603F0004860
:1047C0005FEA080C02D00FF2702C0DE05FEA045C87
:1047D00002D50FF2682C07E05FEAC47C02D00FF22A
:1047E000602C01E0AFF2700C4FF0FF3823F0004373
:1047F000CDF850C065280CD006DC452809D04628E5
:104800001DD047283DD13DE0662818D067287ED1CD
:1048100038E00021112F01DB112000E0781CCDE9E8
:10482000000106A90EA8FFF7DDFCDDE90F010E9AD5
:1048300003910021009207F1010A04914DE04FF02D
:1048400000400097CDE9011006A90EA8FFF7CAFCA9
:10485000DDE90F0203920E9B11990022DDF80CA0F6
:104860000093049211B9791C00EB010AB7EB0A001E
:1048700004D4C0F1FF3007F1010A0490AAEB07004D
:10488000019044E0012F00DA01270021112F01DD02
:10489000112000E03846CDE9000106A90EA8FFF777
:1048A000A1FCDDE90F010E9A039100210491009211
:1048B000BA4621070CD40399514500DA8A46BAF169
:1048C000010F05DD009AAAF10101515C302908D0E1
:1048D000B84202DA10F1040F06DA0121CDE9011025
:1048E00015E0AAF10101E9E7002805DC049901447B
:1048F0000491AAEB000102E0411C514500DD8A460B
:104900000499401A401C01904FF00040029020078B
:1049100004D40198504501DBCDF8048000208DF8C7
:104920004F0002980DF14F07B0F1004F25D02B201A
:104930000E9002984FF0020800280CDA40420290D4
:104940002D200E9007E00A210298FBF799FD3031E7
:10495000029007F8011DB8F10001A8F10108F2DC8E
:1049600002980028EFD1791E0E980870307800F078
:10497000200040F0450007F8020D12A8C01B00F10E
:1049800007081498007800B1012000EB0A01019893
:1049900001EBE07105984144401A401E0590E00388
:1049A00006D45B462146179A059800F05DF8054449
:1049B0001498007818B15A46179990476D1CE00377
:1049C00024D55B462146179A059800F04DF805441A
:1049D0001CE00498002807DBDDE90301884203DDC1
:1049E0000098405C179901E0179930205A4690478B
:1049F000049805F10105401C04900198401E0190A7
:104A000004D12E205A46179990476D1CBAF1000127
:104A1000AAF1010ADDDC05E017F8010B5A461799E7
:104A200090476D1CB8F10001A8F10108F4DC5B4669
:104A30002146179A0598ABE62D0000002B000000D8
:104A4000200000002DE9F041044600251E461746CF
:104A5000880404D405E039462020B0476D1C641E4C
:104A6000F9D52846BDE8F0812DE9F041044600253E
:104A70001E469046C80301D5302700E02027880451
:104A800004D505E041463846B0476D1C641EF9D593
:104A90002846BDE8F08110B541EC100BFFF770F827
:104AA00051EC100B10BD82B0CDE9000121F00040A7
:104AB00001909DED000B02B051EC100B704700000F
:104AC00010B5044601E0FEF7E7FD14F8010B0449B8
:104AD0000028F8D1BDE810400A20FEF7DDBD000037
:104AE0000000002000B52DED048B83B041EC190BC4
:104AF000FBF7A2FE41EC180B18EE100A18EE901A04
:104B00008DED008B002818BF0120084320F00040E5
:104B1000C0F17F6000F1E040C00F14D019EE101A10
:104B200019EE900A8DED009B002918BF0121084362
:104B300020F00040C0F17F6000F1E040C00F04BFF2
:104B40000120FFF749FB51EC180B03B0BDEC048BBF
:104B500000BD000000000000555555555555C53F96
:104B60007D6FEB0312D6D4BF5544880E55C1C93FA3
:104B70003B8F68B52882A4BF88B20175E0EF493F3A
:104B800009F7FD0DE13D023F4B2D8A1C273A03C07A
:104B9000C88A599CE52A004059018D1B6C06E6BF66
:104BA00082922EB1C5B8B33F4FBB610567ACDD3F04
:104BB000182D4454FB21E93F9BF681D20B73EF3F44
:104BC000182D4454FB21F93FE2652F227F2B7A3CBC
:104BD000075C143326A6813CBDCBF07A8807703C75
:104BE000075C143326A6913CC4EB98999999C9BFE8
:104BF000711623FEC671BCBF6D9A74AFF2B0B3BF1D
:104C00009AFDDE522DDEADBF2F6C6A2C44B4A2BFDC
:104C10000D5555555555D53FFF8300922449C23F48
:104C20006E204CC5CD45B73F513DD0A0660DB13F7C
:104C3000EB0D76244B7BA93F11DA22E33AAD903F8E
:104C40000000000000000000000000000000000064
:104C50000102030406070809000000000102030422
:104C6000804C00080000002020000000B84100082F
:104C7000A04C00082000002058050000C841000892
:104C8000000000000000000000002041CDCCCC3D21
:104C90000000803F01000000100000000024F4002C
:040000050800018965
:00000001FF
